{
  "contractName": "DAVToken",
  "abi": [
    {
      "constant": true,
      "inputs": [],
      "name": "name",
      "outputs": [
        {
          "name": "",
          "type": "string"
        }
      ],
      "payable": false,
      "stateMutability": "view",
      "type": "function"
    },
    {
      "constant": false,
      "inputs": [
        {
          "name": "_spender",
          "type": "address"
        },
        {
          "name": "_value",
          "type": "uint256"
        }
      ],
      "name": "approve",
      "outputs": [
        {
          "name": "",
          "type": "bool"
        }
      ],
      "payable": false,
      "stateMutability": "nonpayable",
      "type": "function"
    },
    {
      "constant": true,
      "inputs": [],
      "name": "totalSupply",
      "outputs": [
        {
          "name": "",
          "type": "uint256"
        }
      ],
      "payable": false,
      "stateMutability": "view",
      "type": "function"
    },
    {
      "constant": false,
      "inputs": [
        {
          "name": "_from",
          "type": "address"
        },
        {
          "name": "_to",
          "type": "address"
        },
        {
          "name": "_value",
          "type": "uint256"
        }
      ],
      "name": "transferFrom",
      "outputs": [
        {
          "name": "",
          "type": "bool"
        }
      ],
      "payable": false,
      "stateMutability": "nonpayable",
      "type": "function"
    },
    {
      "constant": true,
      "inputs": [],
      "name": "decimals",
      "outputs": [
        {
          "name": "",
          "type": "uint8"
        }
      ],
      "payable": false,
      "stateMutability": "view",
      "type": "function"
    },
    {
      "constant": false,
      "inputs": [],
      "name": "unpause",
      "outputs": [],
      "payable": false,
      "stateMutability": "nonpayable",
      "type": "function"
    },
    {
      "constant": false,
      "inputs": [
        {
          "name": "_value",
          "type": "uint256"
        }
      ],
      "name": "burn",
      "outputs": [],
      "payable": false,
      "stateMutability": "nonpayable",
      "type": "function"
    },
    {
      "constant": true,
      "inputs": [],
      "name": "pauseCutoffTime",
      "outputs": [
        {
          "name": "",
          "type": "uint256"
        }
      ],
      "payable": false,
      "stateMutability": "view",
      "type": "function"
    },
    {
      "constant": true,
      "inputs": [],
      "name": "paused",
      "outputs": [
        {
          "name": "",
          "type": "bool"
        }
      ],
      "payable": false,
      "stateMutability": "view",
      "type": "function"
    },
    {
      "constant": false,
      "inputs": [
        {
          "name": "_spender",
          "type": "address"
        },
        {
          "name": "_subtractedValue",
          "type": "uint256"
        }
      ],
      "name": "decreaseApproval",
      "outputs": [
        {
          "name": "success",
          "type": "bool"
        }
      ],
      "payable": false,
      "stateMutability": "nonpayable",
      "type": "function"
    },
    {
      "constant": true,
      "inputs": [
        {
          "name": "_owner",
          "type": "address"
        }
      ],
      "name": "balanceOf",
      "outputs": [
        {
          "name": "",
          "type": "uint256"
        }
      ],
      "payable": false,
      "stateMutability": "view",
      "type": "function"
    },
    {
      "constant": true,
      "inputs": [],
      "name": "owner",
      "outputs": [
        {
          "name": "",
          "type": "address"
        }
      ],
      "payable": false,
      "stateMutability": "view",
      "type": "function"
    },
    {
      "constant": true,
      "inputs": [],
      "name": "symbol",
      "outputs": [
        {
          "name": "",
          "type": "string"
        }
      ],
      "payable": false,
      "stateMutability": "view",
      "type": "function"
    },
    {
      "constant": false,
      "inputs": [
        {
          "name": "_to",
          "type": "address"
        },
        {
          "name": "_value",
          "type": "uint256"
        }
      ],
      "name": "transfer",
      "outputs": [
        {
          "name": "",
          "type": "bool"
        }
      ],
      "payable": false,
      "stateMutability": "nonpayable",
      "type": "function"
    },
    {
      "constant": false,
      "inputs": [
        {
          "name": "_spender",
          "type": "address"
        },
        {
          "name": "_addedValue",
          "type": "uint256"
        }
      ],
      "name": "increaseApproval",
      "outputs": [
        {
          "name": "success",
          "type": "bool"
        }
      ],
      "payable": false,
      "stateMutability": "nonpayable",
      "type": "function"
    },
    {
      "constant": true,
      "inputs": [
        {
          "name": "_owner",
          "type": "address"
        },
        {
          "name": "_spender",
          "type": "address"
        }
      ],
      "name": "allowance",
      "outputs": [
        {
          "name": "",
          "type": "uint256"
        }
      ],
      "payable": false,
      "stateMutability": "view",
      "type": "function"
    },
    {
      "constant": false,
      "inputs": [
        {
          "name": "newOwner",
          "type": "address"
        }
      ],
      "name": "transferOwnership",
      "outputs": [],
      "payable": false,
      "stateMutability": "nonpayable",
      "type": "function"
    },
    {
      "inputs": [
        {
          "name": "_initialSupply",
          "type": "uint256"
        }
      ],
      "payable": false,
      "stateMutability": "nonpayable",
      "type": "constructor"
    },
    {
      "anonymous": false,
      "inputs": [],
      "name": "Pause",
      "type": "event"
    },
    {
      "anonymous": false,
      "inputs": [],
      "name": "Unpause",
      "type": "event"
    },
    {
      "anonymous": false,
      "inputs": [
        {
          "indexed": true,
          "name": "previousOwner",
          "type": "address"
        },
        {
          "indexed": true,
          "name": "newOwner",
          "type": "address"
        }
      ],
      "name": "OwnershipTransferred",
      "type": "event"
    },
    {
      "anonymous": false,
      "inputs": [
        {
          "indexed": true,
          "name": "burner",
          "type": "address"
        },
        {
          "indexed": false,
          "name": "value",
          "type": "uint256"
        }
      ],
      "name": "Burn",
      "type": "event"
    },
    {
      "anonymous": false,
      "inputs": [
        {
          "indexed": true,
          "name": "owner",
          "type": "address"
        },
        {
          "indexed": true,
          "name": "spender",
          "type": "address"
        },
        {
          "indexed": false,
          "name": "value",
          "type": "uint256"
        }
      ],
      "name": "Approval",
      "type": "event"
    },
    {
      "anonymous": false,
      "inputs": [
        {
          "indexed": true,
          "name": "from",
          "type": "address"
        },
        {
          "indexed": true,
          "name": "to",
          "type": "address"
        },
        {
          "indexed": false,
          "name": "value",
          "type": "uint256"
        }
      ],
      "name": "Transfer",
      "type": "event"
    },
    {
      "constant": false,
      "inputs": [
        {
          "name": "_pauseCutoffTime",
          "type": "uint256"
        }
      ],
      "name": "setPauseCutoffTime",
      "outputs": [],
      "payable": false,
      "stateMutability": "nonpayable",
      "type": "function"
    },
    {
      "constant": false,
      "inputs": [],
      "name": "pause",
      "outputs": [],
      "payable": false,
      "stateMutability": "nonpayable",
      "type": "function"
    }
  ],
  "bytecode": "0x6003805460a060020a60ff021916905560c0604052600960808190527f44415620546f6b656e000000000000000000000000000000000000000000000060a090815261004e91600491906100f0565b506040805180820190915260038082527f44415600000000000000000000000000000000000000000000000000000000006020909201918252610093916005916100f0565b506006805460ff191660121790553480156100ad57600080fd5b50604051602080610fdd833981016040908152905160038054600160a060020a03191633908117909155600182905560009081526020819052919091205561018b565b828054600181600116156101000203166002900490600052602060002090601f016020900481019282601f1061013157805160ff191683800117855561015e565b8280016001018555821561015e579182015b8281111561015e578251825591602001919060010190610143565b5061016a92915061016e565b5090565b61018891905b8082111561016a5760008155600101610174565b90565b610e438061019a6000396000f3006080604052600436106101065763ffffffff7c010000000000000000000000000000000000000000000000000000000060003504166306fdde03811461010b578063095ea7b31461019557806318160ddd146101cd57806323b872dd146101f4578063313ce5671461021e5780633f4ba83a1461024957806342966c681461026057806359aef196146102785780635c975abb1461028d57806366188463146102a257806370a08231146102c65780638456cb59146102e75780638da5cb5b146102fc57806395d89b411461032d578063a9059cbb14610342578063c84c596314610366578063d73dd6231461037e578063dd62ed3e146103a2578063f2fde38b146103c9575b600080fd5b34801561011757600080fd5b506101206103ea565b6040805160208082528351818301528351919283929083019185019080838360005b8381101561015a578181015183820152602001610142565b50505050905090810190601f1680156101875780820380516001836020036101000a031916815260200191505b509250505060405180910390f35b3480156101a157600080fd5b506101b9600160a060020a0360043516602435610478565b604080519115158252519081900360200190f35b3480156101d957600080fd5b506101e26104b4565b60408051918252519081900360200190f35b34801561020057600080fd5b506101b9600160a060020a03600435811690602435166044356104ba565b34801561022a57600080fd5b506102336104f8565b6040805160ff9092168252519081900360200190f35b34801561025557600080fd5b5061025e610501565b005b34801561026c57600080fd5b5061025e60043561058a565b34801561028457600080fd5b506101e2610597565b34801561029957600080fd5b506101b961059d565b3480156102ae57600080fd5b506101b9600160a060020a03600435166024356105be565b3480156102d257600080fd5b506101e2600160a060020a03600435166105f3565b3480156102f357600080fd5b5061025e61060e565b34801561030857600080fd5b506103116106c9565b60408051600160a060020a039092168252519081900360200190f35b34801561033957600080fd5b506101206106d8565b34801561034e57600080fd5b506101b9600160a060020a0360043516602435610733565b34801561037257600080fd5b5061025e60043561077f565b34801561038a57600080fd5b506101b9600160a060020a03600435166024356107b5565b3480156103ae57600080fd5b506101e2600160a060020a03600435811690602435166107ea565b3480156103d557600080fd5b5061025e600160a060020a0360043516610815565b6004805460408051602060026001851615610100026000190190941693909304601f810184900484028201840190925281815292918301828280156104705780601f1061044557610100808354040283529160200191610470565b820191906000526020600020905b81548152906001019060200180831161045357829003601f168201915b505050505081565b60035460009074010000000000000000000000000000000000000000900460ff16156104a357600080fd5b6104ad83836108aa565b9392505050565b60015490565b60035460009074010000000000000000000000000000000000000000900460ff16156104e557600080fd5b6104f0848484610910565b949350505050565b60065460ff1681565b600354600160a060020a0316331461051857600080fd5b60035474010000000000000000000000000000000000000000900460ff16151561054157600080fd5b6003805474ff0000000000000000000000000000000000000000191690556040517f7805862f689e2f13df9f062ff482ad3ad112aca9e0847911ed832e158c525b3390600090a1565b6105943382610a87565b50565b60075481565b60035474010000000000000000000000000000000000000000900460ff1681565b60035460009074010000000000000000000000000000000000000000900460ff16156105e957600080fd5b6104ad8383610b88565b600160a060020a031660009081526020819052604090205490565b600354600160a060020a0316331461062557600080fd5b60035474010000000000000000000000000000000000000000900460ff161561064d57600080fd5b600754158061065e57504260075410155b151561066957600080fd5b6003805474ff00000000000000000000000000000000000000001916740100000000000000000000000000000000000000001790556040517f6985a02210a168e66602d3235cb6db0e70f92b3ba4d376a33c0f3d9434bff62590600090a1565b600354600160a060020a031681565b6005805460408051602060026001851615610100026000190190941693909304601f810184900484028201840190925281815292918301828280156104705780601f1061044557610100808354040283529160200191610470565b60035460009074010000000000000000000000000000000000000000900460ff16158061076a5750600354600160a060020a031633145b151561077557600080fd5b6104ad8383610c78565b600354600160a060020a0316331461079657600080fd5b428110156107a357600080fd5b600754156107b057600080fd5b600755565b60035460009074010000000000000000000000000000000000000000900460ff16156107e057600080fd5b6104ad8383610d59565b600160a060020a03918216600090815260026020908152604080832093909416825291909152205490565b600354600160a060020a0316331461082c57600080fd5b600160a060020a038116151561084157600080fd5b600354604051600160a060020a038084169216907f8be0079c531659141344cd1fd0a4f28419497f9722a3daafe3b4186f6b6457e090600090a36003805473ffffffffffffffffffffffffffffffffffffffff1916600160a060020a0392909216919091179055565b336000818152600260209081526040808320600160a060020a038716808552908352818420869055815186815291519394909390927f8c5be1e5ebec7d5bd14f71427d1e84f3dd0314c0f7b2291e5b200ac8c7c3b925928290030190a350600192915050565b6000600160a060020a038316151561092757600080fd5b600160a060020a03841660009081526020819052604090205482111561094c57600080fd5b600160a060020a038416600090815260026020908152604080832033845290915290205482111561097c57600080fd5b600160a060020a0384166000908152602081905260409020546109a5908363ffffffff610df216565b600160a060020a0380861660009081526020819052604080822093909355908516815220546109da908363ffffffff610e0416565b600160a060020a03808516600090815260208181526040808320949094559187168152600282528281203382529091522054610a1c908363ffffffff610df216565b600160a060020a03808616600081815260026020908152604080832033845282529182902094909455805186815290519287169391927fddf252ad1be2c89b69c2b068fc378daa952ba7f163c4a11628f55a4df523b3ef929181900390910190a35060019392505050565b600160a060020a038216600090815260208190526040902054811115610aac57600080fd5b600160a060020a038216600090815260208190526040902054610ad5908263ffffffff610df216565b600160a060020a038316600090815260208190526040902055600154610b01908263ffffffff610df216565b600155604080518281529051600160a060020a038416917fcc16f5dbb4873280815c1ee09dbd06736cffcc184412cf7a71a0fdb75d397ca5919081900360200190a2604080518281529051600091600160a060020a038516917fddf252ad1be2c89b69c2b068fc378daa952ba7f163c4a11628f55a4df523b3ef9181900360200190a35050565b336000908152600260209081526040808320600160a060020a038616845290915281205480831115610bdd57336000908152600260209081526040808320600160a060020a0388168452909152812055610c12565b610bed818463ffffffff610df216565b336000908152600260209081526040808320600160a060020a03891684529091529020555b336000818152600260209081526040808320600160a060020a0389168085529083529281902054815190815290519293927f8c5be1e5ebec7d5bd14f71427d1e84f3dd0314c0f7b2291e5b200ac8c7c3b925929181900390910190a35060019392505050565b6000600160a060020a0383161515610c8f57600080fd5b33600090815260208190526040902054821115610cab57600080fd5b33600090815260208190526040902054610ccb908363ffffffff610df216565b3360009081526020819052604080822092909255600160a060020a03851681522054610cfd908363ffffffff610e0416565b600160a060020a038416600081815260208181526040918290209390935580518581529051919233927fddf252ad1be2c89b69c2b068fc378daa952ba7f163c4a11628f55a4df523b3ef9281900390910190a350600192915050565b336000908152600260209081526040808320600160a060020a0386168452909152812054610d8d908363ffffffff610e0416565b336000818152600260209081526040808320600160a060020a0389168085529083529281902085905580519485525191937f8c5be1e5ebec7d5bd14f71427d1e84f3dd0314c0f7b2291e5b200ac8c7c3b925929081900390910190a350600192915050565b600082821115610dfe57fe5b50900390565b81810182811015610e1157fe5b929150505600a165627a7a723058205180e67f5d581302ed9934a26060f502b7a9e6ef26fb917eb0db1498abe58b9e0029",
  "source": "pragma solidity 0.4.24;\n\nimport './interfaces/IDAVToken.sol';\nimport 'openzeppelin-solidity/contracts/token/ERC20/BurnableToken.sol';\nimport './OwnedPausableToken.sol';\n\n\n/**\n * @title DAV Token\n * @dev ERC20 token\n */\ncontract DAVToken is IDAVToken, BurnableToken, OwnedPausableToken {\n\n  // Token constants\n  string public name = 'DAV Token';\n  string public symbol = 'DAV';\n  uint8 public decimals = 18;\n\n  // Time after which pause can no longer be called\n  uint256 public pauseCutoffTime;\n\n  /**\n   * @notice DAVToken constructor\n   * Runs once on initial contract creation. Sets initial supply and balances.\n   */\n  constructor(uint256 _initialSupply) public {\n    totalSupply_ = _initialSupply;\n    balances[msg.sender] = totalSupply_;\n  }\n\n  /**\n   * Set the cutoff time after which the token can no longer be paused\n   * Cannot be in the past. Can only be set once.\n   *\n   * @param _pauseCutoffTime Time for pause cutoff.\n   */\n  function setPauseCutoffTime(uint256 _pauseCutoffTime) onlyOwner public {\n    // Make sure time is not in the past\n    // solium-disable-next-line security/no-block-members\n    require(_pauseCutoffTime >= block.timestamp);\n    // Make sure cutoff time hasn't been set already\n    require(pauseCutoffTime == 0);\n    // Set the cutoff time\n    pauseCutoffTime = _pauseCutoffTime;\n  }\n\n  /**\n   * @dev called by the owner to pause, triggers stopped state\n   */\n  function pause() onlyOwner whenNotPaused public {\n    // Make sure pause cut off time isn't set or if it is, it's in the future\n    // solium-disable-next-line security/no-block-members\n    require(pauseCutoffTime == 0 || pauseCutoffTime >= block.timestamp);\n    paused = true;\n    emit Pause();\n  }\n\n}\n",
  "sourcePath": "/home/anatoly/projects/dav/contracts/contracts/DAVToken.sol",
  "compiler": {
    "name": "solc",
    "version": "0.4.24+commit.e67f0147.Emscripten.clang"
  },
  "schemaVersion": "2.0.1",
  "updatedAt": "2018-10-25T09:38:32.895Z"
}